:020000040800F2
:10000000E0090020A10100087B2500087D220008EE
:10001000792500086D040008F52F00080000000095
:10002000000000000000000000000000D9280008C7
:10003000C3040008000000007D250008DB2800083C
:10004000BB010008BB010008BB010008BB010008A0
:10005000BB010008BB010008BB010008BB01000890
:10006000BB010008BB010008BB010008BB01000880
:10007000BB010008BB010008710400087D040008F2
:10008000BB010008BB010008BB010008BB01000860
:10009000BB010008BB010008BB010008BB01000850
:1000A000BB010008BB010008BB010008BB01000840
:1000B000BB0100080000000000000000BB010008B8
:1000C000BB010008BB010008BB010008BB01000820
:1000D000BB010008E92F0008BB010008BB010008B4
:1000E000BB010008BB010008000000000000000088
:1000F0000000000000000000000000000000000000
:1001000000000000BB01000800000000BB01000867
:100110000000000000000000BB010008BB01000857
:10012000BB010008BB010008BB010008BB010008BF
:10013000BB010008000000000000000000000000FB
:10014000BB010008BB010008BB0100080000000063
:10015000BB01000889040008BB010008BB010008BE
:10016000BB010008BB010008BB0100080000000043
:10017000BB010008BB0100080000000000000000F7
:10018000BB010008BB010008BB010008DFF80CD070
:1001900000F09CF8004800477D350008E009002089
:1001A0000648804706480047FEE7FEE7FEE7FEE711
:1001B000FEE7FEE7FEE7FEE7FEE7FEE76D29000843
:1001C0008D0100082DE9F05F0546002092469B4610
:1001D00088460646814640241BE02846414647465D
:1001E000224600F063F853465A46C01A914110D394
:1001F00011461846224600F04AF82D1A67EB01080E
:100200004F4622460120002100F041F817EB00097B
:100210004E41201EA4F10104DFDC484631462A4647
:10022000434600F000B830BCBDE8C09F40EA01037F
:100230009B0703D009E008C9121F08C0042AFAD29C
:1002400003E011F8013B00F8013B521EF9D2704760
:10025000D2B201E000F8012B491EFBD27047002208
:10026000F6E710B513460A4604461946FFF7F0FFB5
:10027000204610BD30B504460020034600E05B1C5C
:10028000934203D2E05CCD5C401BF8D030BD202A05
:1002900004DB203A00FA02F1002070479140C2F1DD
:1002A000200320FA03F3194390407047202A04DB0F
:1002B000203A21FA02F00021704721FA02F3D040DF
:1002C000C2F120029140084319467047064C074D81
:1002D00006E0E06840F0010394E807009847103416
:1002E000AC42F6D3FFF756FF5436000874360008C8
:1002F00010B588B020221D496846FFF797FF1C49BA
:10030000009888422ED10298042410B1B0F5583FCD
:1003100005D98DF80440684601F0E4FF22E003208F
:100320008DF80400684601F0DDFFD8B901F0A8FFA0
:100330000028EED1029901F0FFFF0028E9D10D4815
:10034000029903F049F903998142E2D100F02AF8B9
:100350000028DED000208DF80400684601F0C2FFBE
:10036000002800D0012008B010BD000000E0030804
:100370004C41544F0080000800B589B020216846E8
:10038000FFF76DFF0648009000208DF804000290F2
:1003900003900490684601F0A5FF09B000BD00007D
:1003A0004C41544F084908684968084A1040B0F168
:1003B000005F05D1044840420844B0F5583F01D3DE
:1003C0000020704701207047008000080000FE2FC9
:1003D00070B5134E35687468FFF7E4FF00281DD030
:1003E00072B600204FF0E021086148618861421E2A
:1003F000810001F1E021C1F88021C1F88022401C78
:100400000828F5D301F088F800F058FA054806608E
:1004100085F30888A446BDE87040604770BD0000C1
:100420000080000808ED00E010B50E4C0E49206871
:10043000884202D12079042803D9FFF79DFF0028C4
:100440000ED12079022803D1FFF752FF002807D1EF
:10045000FFF7A8FF002803D0BDE81040FFF7B8BFA2
:1004600010BD000000E003084C41544FFEE70000BF
:10047000014800F01DB9000098050020014800F077
:1004800017B9000080040020014800F011B90000F5
:100490005005002030B590F8444004F01C050124BC
:1004A000AC40056C6C60046863608368102B036863
:1004B00003D099600068C26030BD9A600068C16076
:1004C00030BD704772B6FEE7144A117F1448012907
:1004D00001D003290FD1036823F40073036003687C
:1004E00043F400630360036823F40063036003685C
:1004F00043F400730360022901D003290BD1016882
:1005000041F480510160016821F48051016001686B
:1005100041F4806101600020107770470C000020DA
:1005200000200240C107054803D0416941F00401A1
:100530004161416941F480314161704700200240CE
:1005400008494A69C0B222F47E7242EAC00048619A
:10055000486940F002004861486940F480304861D1
:100560007047000000200240054910B54C6944F076
:1005700001044C610260BFF36F8F436010BD000047
:1005800000200240094A10B55469402344F48024F5
:100590005461EFF3108272B610C910C05B1E13F0E5
:1005A000FF03F9D182F3108810BD00000020024043
:1005B00070B5054600F06EFB0646134C08E0681C5B
:1005C00006D000F067FB801BA84201D3032070BD5A
:1005D0002069C003F3D420690C4908400CD00C49B1
:1005E0004A6802434A60810F01D0A169A16181007C
:1005F00000D02061012070BD2069C00701D001201A
:100600002061002070BD000000200240FAC30200FB
:100610000C00002010B540B190F8251000220229EE
:1006200005D00421C16380F82420012010BD016899
:100630000B6823F001030B6001680B6823F00E03C5
:100640000B6090F84410046C01F01C03012101FAC6
:1006500003F3636080F8251080F82420002010BD8B
:1006600010B590F825100024022903D00421C1639D
:1006700001241AE001680A6822F001020A60016898
:100680000A6822F00E020A6090F84410036C01F030
:100690001C02012101FA02F25A6080F825100021A3
:1006A00080F82410816B01B18847204610BD0000FE
:1006B000F0B4016C0D6801680C6890F8442002F0F9
:1006C0001C06042202FA06F32B4211D063070FD551
:1006D0000B689B0603D40B6823F004030B6090F8AF
:1006E000441001F01C018A40016C4A60016B26E055
:1006F000022202FA06F72F424FF0000C4FF00103DE
:1007000021D0A7071FD50C68A40605D40C6824F0D7
:100710000A040C6080F82530184B0168994290F863
:10072000441001F01C0102FA01F202D914490A60D6
:1007300002E0124980394A6080F824C0C16A002969
:100740001AD0F0BC08470822B2402A4214D022072F
:1007500012D50A6822F00E020A6090F84410026C6A
:1007600001F01C0103FA01F15160C36380F82530E8
:1007700080F824C0416BE2E7F0BC70478000024083
:100780000404024010B568B12C4C026814232C49B3
:10079000A24209D22B4C1444B4FBF3F39B00C0E9F2
:1007A00010130BE0012010BD244C64421444B4FB30
:1007B000F3F39B004364214B083B0364022380F85E
:1007C0002530136847F6F074A3431360D0E9022381
:1007D0001A43D0E9043423431A4383691A43C36993
:1007E0001A43036A1A4303681C6822431A6082682A
:1007F000B2F5804F19D0036C0F228B4202D151F811
:10080000A83F02E00D49A0310B6890F8444004F085
:100810001C04A24093430B6090F84430426803F0FC
:100820001C039A400B681A430A600021C16301222D
:1008300080F8252080F82410084610BD08040240E6
:1008400000000240F8FFFDBF70B5044690F8240098
:10085000002501280ED0012084F8240094F825609A
:100860000020012E08D08021E16384F824000125B6
:10087000284670BD022070BD022684F82560E06322
:100880002068066826F0010606602046FFF702FE93
:10089000206B00282068016802D041F00E0106E0BC
:1008A00021F0040101602068016841F00A01016043
:1008B0002068016841F001010160D9E70A4810B5DC
:1008C0004FF0FF318163C16300228263C263016420
:1008D000026481628262C162C2620163026300F0EB
:1008E00019FA002010BD0000001002402DE9F05F51
:1008F000054632488946017801290CD001268046F8
:1009000006704CF2503B5846FFF752FE07004FF07E
:10091000000A03D04EE0022000F054B85146404691
:10092000C8F804A0264C226892050AD5216849051A
:1009300005D5216821F480612160032109E0067753
:1009400008E02268520504D5216821F48061216005
:10095000022101772868012807D04FF0FF31C9F83C
:10096000001040F2FA3BAE681DE06868FFF7DAFD60
:100970005846FFF71DFE0746606920F004006061DD
:1009800016E030466968FFF7DBFD4CF25030FFF7A8
:100990000FFE0700606920EA0B00606102D0C9F811
:1009A000006005E0761CD5E902010844B042E8D8B1
:1009B000FFF78AFD88F800A03846ADE70C0000205C
:1009C0000020024030BCBDE8C09F000003484169E0
:1009D00041F00041416100207047000000200240CA
:1009E0002DE9FF5F254C0646904620789A4601285F
:1009F0000BD0012020704CF2503B5846FFF7D8FD39
:100A000007004FF0000904D02AE0022004B000F0F3
:100A100039B84846C4F80490194D2968490504D5E9
:100A2000286820F4806028600220207726B1012EFB
:100A300009D0022E07D00CE0424653460198FFF73A
:100A400093FD012612E041460198FFF79BFD022E1F
:100A50000AD05846FFF7ACFD4FEA0007FFF734FD18
:100A600084F800903846D1E74FF480265846FFF7C7
:100A70009FFD07466869B0436861EFE70C000020FE
:100A80000020024030BCBDE8C09F000006490020A5
:100A90004A69002A07DA054A8A60054A8A60496974
:100AA000002900DA01207047002002402301674539
:100AB000AB89EFCD2DE9F04FDFF8AC910023032592
:100AC000A9F1040B85B04FF0010C0F2709F1040ABE
:100AD000ABF1040EBFE000BF0CFA03F6324075D054
:100AE0000C7904F00304012C01D0022C1BD1846882
:100AF00000945C0005FA04F80494009C24EA0804BD
:100B00000094D1F80C80049C08FA04F8009C48EA90
:100B10000408C0F808804468B4430E79C6F3001690
:100B20009E40264346600C79E443A4070AD0C4687B
:100B30004FEA430805FA08F6B4438E6806FA08F649
:100B40002643C6600C7904F00304022C10D1DC08A3
:100B500000EB84040294246A5E074FEAD66807FA21
:100B600008F6B4430E6906FA08F62643029C26628C
:100B700004684FEA430805FA08F6B4430E7906F014
:100B8000030606FA08F6264306604C6814F4403F54
:100B900060D0364C266E46F001062666246E23F0A1
:100BA000030604F001040094314C34440294A46818
:100BB0009E074FEA167807FA08F6B443B0F1904F53
:100BC00005D02C4EB04204D1012612E042E00026AE
:100BD0000FE0294EB04201D102260AE0274EB04272
:100BE00001D1032605E0264EB04201D1042600E0E3
:100BF000072606FA08F62643029CA660D9F800608C
:100C00004C46D1F8048096435FEAC82800D51643C5
:100C10002660DAF800405646D1F8048094435FEA33
:100C2000882800D514433460DBF800405E46D1F8D4
:100C3000048094435FEA883800D514433460DEF8BA
:100C400000407646D1F8048094435FEAC83800D566
:100C5000144334605B1C0A6832FA03F47FF43CAF3F
:100C600005B000F00FB80000080401400010024079
:100C7000000001400004004800080048000C004843
:100C80000010004830BCBDE8C08F0AB181617047D8
:100C900081627047014880687047000000000020B2
:100CA000024881680278114481607047000000208A
:100CB00010B50024032000F073F80F2000F008F8AE
:100CC00008B1012401E000F027F8204610BD000023
:100CD00070B50E4E05460024307898B14FF47A7105
:100CE000B1FBF0F00A490968B1FBF0F000F0AAFF8F
:100CF00040B9102D06D200222946501E00F030F8CF
:100D0000756000E00124204670BD00000000002056
:100D10002C00002070470000094808B5016E41F022
:100D200001010166016E01F001010091816D41F048
:100D300080518165806D00F08050009008BD0000FA
:100D400000100240002809DB00F01F020121914041
:100D50004009800000F1E020C0F800117047000059
:100D6000F0B40E4B1B680C46C3F30223C3F1070516
:100D7000042D00D90425191D072901D2002300E004
:100D8000DB1E012606FA05F1491E214099409E40CE
:100D9000761E16403143F0BC02F090B90CED00E035
:100DA000064900F0070208684FF6FF03184040EAC2
:100DB0000220034A10430860704700000CED00E079
:100DC0000000FA051649B0F5007F0868C0F341201D
:100DD00009D0022805D0086820F4C06040F4806083
:100DE0000860002070470128FBD0086820F4C0602C
:100DF00040F4007008600B483222006850430A4AF1
:100E0000B0FBF2F0401C00E0401E4A69520501D5DB
:100E10000028F9D148694005E3D503207047000058
:100E2000007000402C00002040420F000248006883
:100E300000F4C06070470000007000400248016884
:100E400041F4807101607047007000402DE9F84F57
:100E500017468B460446FFF71DFF824694F8400074
:100E600001280ED0012684F8406094F841004FF02C
:100E70000008012807D0022584F84080284600F0A9
:100E800028B80220FBE7C4F844804FF0020984F838
:100E900041905346002220212046009701F023FC78
:100EA0000500E9D100225946204601F068FBDBF835
:100EB000240058B95346012202212046009701F030
:100EC00012FC0500D8D12168C1F80C9084F841606B
:100ED000D2E718BCBDE8E08FF8B50446FFF7DAFEAC
:100EE000064624B194F84100002510B109E0012024
:100EF000F8BD84F84050204600F042F841F28830B6
:100F0000A06420680168A2686FF0FF0321F470619B
:100F100003EB022211430160A06C009033460022D3
:100F20002021204601F0DFFB10BBE269E168237954
:100F30001143226A42EA03621143226813680E4E8B
:100F4000334019431160D4E90512114322685368F4
:100F50000A4E3340268A43EA06431943516021680A
:100F60000A6842F001020A606564012184F84110B8
:100F700084F84050F8BD00002FFFFF00FEF8E0FFAE
:100F80002DE9F04186B0064614216846FFF767F95F
:100F900027493068884248D12649086D40F480705E
:100FA0000865086D00F480700590C86C40F0010081
:100FB000C864C86C00F001000590C86C40F00200E5
:100FC000C864C86C022700F0020005900C200025C0
:100FD0000324CDE90007CDE902544FF00A08694621
:100FE000CDF810804FF09040FFF764FDCDE9004749
:100FF000CDE9025469461048CDF81080FFF75AFD3C
:101000000F4C0E4820600520C4E901058020C4E98A
:1010100003506561A561E56120462562FFF7B2FBDB
:1010200008B1FFF74FFAF463A66206B0BDE8F0819D
:10103000001000A0001002400004004858000240C8
:10104000800400202DE9F84F15460E460446FFF7B0
:1010500021FE82462068816994F8402000F1200931
:10106000012A0DD0012784F8407094F841204FF0F8
:101070000008012A06D0022084F8408000F041B820
:101080000220FBE7C4F84480A6B3222284F8412062
:101090000269521CA2630269521C626326634269A0
:1010A00022F0406242F080624261206881610EE07D
:1010B0000621204601F017FBC8B999F80000216B02
:1010C0000870206B401C2063A06B401EA063A06BC7
:1010D00053464FF0010200950028E9D14FF002017C
:1010E000204601F000FB10B922680221D16084F88B
:1010F0004170C1E7FFE7606C40F0080060640120C8
:10110000BAE718BCBDE8E08F0248016841F004016D
:1011100001607047001002402DE9F84F0446002797
:101120000088A84D3E46000515D5606C60B1B0F54D
:10113000000F04D0B0F5400F2BD001270AE0E8687B
:1011400040F48030E86024E00021201D01F0F0FA36
:1011500007001ED03E46206880033AD5A86D4FF0A8
:101160000008C00009D4A86D40F08050A865A86DA3
:101170004FF0010800F080500090DFF84CA2DAF840
:10118000001041F48071CAF80010FFF783FD81461A
:1011900010E0D5F88800616C20F440000843C5F8E1
:1011A0008800D8E7FFF776FDA0EB0900022801D9F7
:1011B000032705E0DAF80000C005F3D5002F7DD045
:1011C0004FEA0706B8F1000F03D0A86D20F0805059
:1011D000A8652078C00707D0D5F88800216A20F0DC
:1011E00003000843C5F888002078800707D5D5F8A4
:1011F0008800616A20F00C000843C5F88800207858
:10120000400707D5D5F88800A16A20F030000843D0
:10121000C5F888002078800607D5D5F88800E16AEF
:1012200020F440600843C5F888002088800507D571
:10123000D5F88800E16B20F440200843C5F8880009
:101240002088400507D5D5F88800216C20F440108F
:101250000843C5F888002078400607D5D5F88800EF
:10126000216B20F440500843C5F888002078000620
:1012700007D5D5F88800616B20F440400843C5F8D5
:1012800088002088C00507D5D5F88800A16B20F418
:1012900040300843C5F8880020684FF0006700031D
:1012A0004FF0806850D5D5F88800A16C20F04060E0
:1012B0000843C5F88800A06CB84200E005E03BD1C7
:1012C000E86840F48010E8603EE0D5F8900010F443
:1012D000407014D0A16D814211D0D5F89000D5F89E
:1012E000901020F4407041F48031C5F89010D5F88A
:1012F000901021F48031C5F89010C5F89000C00717
:1013000011D0FFF7C7FC074641F2883907E000BF5C
:10131000FFF7C0FCC11B494501D9032652E7D5F8A8
:1013200090008007F4D5D5F89000A16D20F44070AE
:101330000843C5F8900045E7404505D10121201D2F
:1013400001F0F6F900B106462068400317D5D5F83C
:101350008800E16C20F040600843C5F88800E06C2C
:10136000B84204D1E86840F48010E86007E04045E6
:1013700005D10121201D01F0DBF900B106462088CE
:10138000400411D5D5F88800216D20F04050084365
:10139000C5F88800206DB0F1805F05D10221201DC5
:1013A00001F0C6F900B106462088000406D555F8BC
:1013B000880F616D20F0804008432860304600F0BF
:1013C00005B80000001002400070004018BCBDE8E5
:1013D000E08F00002DE9F0470F4605006BD0494E25
:1013E000306800F00700B84209D2306820F00700EA
:1013F00038433060306800F00700B8425BD128788D
:10140000414C80070AD5A868A16801F0F001884224
:1014100004D9A16821F0F0010143A1602878C00738
:101420002CD06868032811D0022812D0216898B106
:10143000490500293FDAA16821F003010143A160B9
:10144000FFF728FC804641F2883910E021688901C5
:10145000EFE721688903ECE78907EAE7FFF71AFC61
:10146000A0EB0801494502D90320BDE8F087A06838
:10147000696800F00C00B0EB810FEFD1287880078D
:101480000AD5A868A16801F0F001884204D2A168D9
:1014900021F0F0010143A160306800F00700B8427C
:1014A0000BD9306820F0070038433060306800F016
:1014B0000700B84201D00120D7E72878400705D5BA
:1014C000A068E96820F4E0600843A060287800077D
:1014D00006D5A068296920F4605040EAC100A060E8
:1014E00000F0AEF8A168094AC1F30311515C01F0A4
:1014F0001F01C8400649086006480068BDE8F0477B
:10150000FFF7E6BB00200240001002400C36000846
:101510002C000020040000202DE9F041314C20680F
:1015200040F001002060FFF7B5FB054605E000BF75
:10153000FFF7B0FB401B022833D820688007F7D59F
:10154000206820F0F00040F0600020600025A560D9
:1015500026492548086026480068FFF7B9FB10B106
:101560000120BDE8F081FFF795FB064641F2883780
:1015700005E000BFFFF78EFB801BB84211D8A068C2
:1015800010F00C0FF6D120681A4908402060FFF7D0
:1015900081FB064607E000BFFFF77CFB801B0228AB
:1015A00001D90320DDE7206810F0206FF4D1E56059
:1015B000E06840F48050E0602561206940F480508C
:1015C0002061206820F480202060A5614FF0FF306A
:1015D0002062D4F8940040F40000C4F89400002085
:1015E000BFE700000010024000093D002C00002071
:1015F00004000020FFF4FEFA0548064900688968E7
:10160000054AC1F30221515C01F01F01C840704737
:101610002C000020001002404C3600080548064906
:1016200000688968054AC1F3C221515C01F01F01BD
:10163000C84070472C000020001002404C360008C3
:1016400070B52549002318468A68CC6812F00C0250
:1016500004F00306214C4FEA640509D00C2A05D09A
:10166000042A32D0082A00D1284670BD012E10D19C
:101670000B681B0704D4D1F89430C3F3032302E0B2
:101680000B68C3F30313164E56F82330DAB10C2A55
:10169000EBD1C86800F00300022818D0032818D046
:1016A0001846CA68CB68C2F30212C3F30623434349
:1016B000521CB3FBF2F2C868C0F34160401C40000A
:1016C000B2FBF0F070BD184670BD204670BD2046DC
:1016D000E7E72846E5E70000001002400024F40098
:1016E0001C3600082DE9F84304006FD0FA4DA868B5
:1016F00000F00C06E86800F003072078C00664D507
:1017000076B10C2E01D1012F0AD0A06900282868DB
:101710007AD040F001002860FFF7BCFA80465DE017
:101720002868800702D5A0690028DED0216A2868D1
:10173000000703D5286800F0F00004E0D5F8940015
:10174000F02202EA1010814216D9084601F086F80C
:1017500000283BD1286840F0080028602868216AEA
:1017600020F0F000084328606868E16920F47F40B9
:1017700040EA0120686016E0286840F00800286010
:101780002868216A20F0F000084328606868E16951
:1017900020F47F4040EA0120686026B9206A01F009
:1017A0005DF80028D5D1FFF74BFFA968CB4AC1F3FC
:1017B0000311515C01F01F01C840C9490860C948C4
:1017C0000068FFF785FA00287ED12EE0CAE000BF4E
:1017D000FFF760FAA0EB0800022876D82868800797
:1017E000F6D5286840F0080028602868216A20F0B3
:1017F000F000084328606868E16920F47F4040EA0F
:101800000120686011E0FFE720F001002860FFF789
:1018100041FA804606E000BFFFF73CFAA0EB080063
:101820000228DAD828688007F6D42078C00740D08C
:10183000082E18D00C2E01D1032F14D06068B0F5FB
:10184000803F17D0B0F5A02F286817D020F4803043
:101850002860286820F4802028606068E0B1FFF7E5
:1018600019FA804614E02868800322D560680028B1
:1018700078D01EE0286840F48030EDE740F4802006
:101880002860F7E7FFF706FAA0EB08006428A4D861
:1018900028688003F6D50CE0FFF7FCF9804605E0E8
:1018A000FFF7F8F9A0EB0800642896D828688003B1
:1018B000F6D4207880073BD5042E11D00C2E01D110
:1018C000022F0DD0E06801E0AAE1FFE000282868BF
:1018D0001ED040F480702860FFF7DCF907460CE06A
:1018E000286840050CD5E0680028C1D008E000BF9A
:1018F000FFF7D0F9C01B022893D828684005F7D518
:101900006868217C20F0F85040EA016068600FE0D0
:1019100020F480702860FFF7BDF9074605E000BF9E
:10192000FFF7B8F9C01B0228B1D828684005F7D4E2
:101930002078000729D560690028D5F8940012D0D6
:1019400040F00100C5F89400FFF7A4F9074604E051
:10195000FFF7A0F9C01B022899D8D5F8940080079A
:10196000F6D512E02BE120F00100C5F89400FFF756
:1019700091F9074605E000BFFFF78CF9C01B02286C
:1019800085D8D5F894008007F6D42078400766D52E
:10199000A86D0027C00008D4A86D40F08050A8654D
:1019A000A86D012700F0805000904F480168C905DC
:1019B00012D40168814641F480710160FFF76AF931
:1019C000804605E0FFF766F9A0EB080002287DD805
:1019D000D9F80000C005F5D5A068012816D0052863
:1019E000D5F8900017D020F00100C5F89000D5F888
:1019F000900020F0040000BFC5F89000A06841F2FC
:101A00008839C0B1FFF746F980460FE0D5F890005D
:101A100040F00100F0E740F00400C5F89000F5E761
:101A2000FFF738F9A0EB080149454FD8D5F89000E9
:101A30008007F5D50EE0FFF72DF9804606E000BFE0
:101A4000FFF728F9A0EB080149453FD8D5F89000E9
:101A50008007F5D41FB1A86D20F08050A8652078CC
:101A6000800628D5606A0028D5F8980012D040F08A
:101A70000100C5F89800FFF70DF9074605E000BF23
:101A8000FFF708F9C01B022820D8D5F89800800776
:101A9000F6D510E020F00100C5F89800FFF7FAF83D
:101AA000074604E0FFF7F6F8C01B02280ED8D5F869
:101AB00098008007F6D4A06AF0B3022816D00C2E46
:101AC0007DD0286820F08070286000E0A7E0FFF754
:101AD000E1F80446A6E00000001002400C360008C1
:101AE0002C0000200400002000700040E868E26A3A
:101AF00000F00301914228D1216B00F0700209012E
:101B00001039914221D1626B00F4FE41B1EB022FFA
:101B10001BD194F8382000F07841B1EBC26F14D19A
:101B2000A18F00F4C00249084905A1F500119142B6
:101B30000BD194F8401000E06AE04908490600F033
:101B4000C060A1F1007181424BD00C2E73D0286887
:101B5000400170D4286820F080702860FFF79AF860
:101B6000064604E0FFF796F8801B022857D828683D
:101B70008001F7D4F4E90B016FF00F0202EB0111C1
:101B80000843218A5204490802EB4151A26841EA04
:101B900002210843217D4FF07E42490802EB41615A
:101BA0000843217B40EAC160E968244A11400843A8
:101BB000E860286840F080702860E86800E03AE05B
:101BC00040F08070E860FFF765F8044605E000BF6C
:101BD000FFF760F8001B022821D828688001F7D59C
:101BE00027E02868800124D4286840F080702860AD
:101BF000E86840F08070E860FFF74CF8044604E0C5
:101C0000FFF748F8001B022809D828688001F7D59B
:101C10000FE000BFFFF73EF8001B022802D90320A7
:101C2000BDE8F88328688001F4D4E86804490840D6
:101C3000E8600020F4E70120F2E700008C809D01BD
:101C4000FCFFEEFE10B5401EB0F1807F01D30120F5
:101C500010BD4FF0E02460610F21601701F02EFAF3
:101C60000020A06107202061002010BD10B50446AF
:101C7000D0F88000202801D0022010BD61B15AB1F7
:101C80000120206600206066204601F013F900283C
:101C9000F3D1216E012901D0012010BD226810214D
:101CA0001162226852E8001F41F0100142E800135F
:101CB000002BF6D110BD000010B50C4600680A4993
:101CC00088420FD109A001F0E9F922460D490E48DA
:101CD00000F08CFABDE810404FF4806209490A48D0
:101CE000FFF7C4BF10BD00000038014074686520D4
:101CF0007265636569766520646174612069733A11
:101D00000000000034000020C80400207047704725
:101D10002DE9F04102680446D0691168936840F6E5
:101D20000F0528424FF000054FF0020605D1870647
:101D30007ED58F067CD5A16E33E1DFF894C203F027
:101D4000010701EA0C0C57EA0C0C71D05FEAC07C69
:101D50000CD05FEAC15C09D54FF0010CC2F820C07D
:101D6000D4F8842042F00102C4F88420820709D507
:101D7000DA0707D022681662D4F8842042F0040201
:101D8000C4F8842042070AD5DA0708D02368042261
:101D90001A62D4F8842042F00202C4F884200207B8
:101DA0000CD501F020023A4308D0236808221A62B9
:101DB000D4F8842042F00802C4F8842002050BD530
:101DC0004A0109D523684FF400621A62D4F88420CE
:101DD00042F02002C4F88420D4F88420002A36D0AF
:101DE000800605D5880603D5A16E09B1204688472F
:101DF000D4F8840021688968490602D410F0280FBD
:101E000027D0204600F024FF2068806840061BD5BC
:101E10002068083050E8001F21F0400140E800121F
:101E2000002AF5D1606F78B16A498163606F00E084
:101E300015E0FEF715FC002809D0606F816B00E00B
:101E40002046BDE8F04108472046FFF760FFBDE8A7
:101E5000F0812046FFF75BFFC4F88450F7E7D4F821
:101E600060C02027BCF1010F7ED15FEAC06C7BD53A
:101E70005FEAC16C78D51020106220688068400647
:101E80004FD5616F0A6850680004000C3DD0B4F86B
:101E90005830834239D9A4F85A000868006880068F
:101EA0002BD4206850E8001F21F4807140E8001214
:101EB000002AF6D12068083050E8001F21F0010107
:101EC00040E80012002AF5D12068083050E8001FD1
:101ED00021F0400140E80012002AF5D1C4F88070DA
:101EE0002566206850E8001F21F0100140E800122C
:101EF000002AF6D1606FFEF78DFB6666B4F85800D5
:101F0000B4F85A10401A81B207E0B4F85810814270
:101F10009DD1106880069AD566662046FFF7CCFEF4
:101F200095E7B4F85800B4F85A10401A81B2B4F8E2
:101F30005A0000288BD0002989D0226852E8000F6F
:101F400020F4907042E80003002BF6D1206808309E
:101F500050E8002F22F0010240E80023002BF5D1C9
:101F6000C4F88070256600E00AE0A566226852E8A1
:101F7000000F20F0100042E80003002BF6D1CBE761
:101F8000C60209D55B0207D54FF4801010622046C7
:101F9000BDE8F041FFF7BABE020606D50A0604D531
:101FA000E16E00297FF44CAF51E74006B8D54806F2
:101FB000B6D52046026852E8001F21F0400142E8F1
:101FC0000013002BF6D1C767C56600F055F93EE750
:101FD00020010004ED2A000810B5040002D0E06FD3
:101FE00010B107E0012010BD002084F878002046E1
:101FF00000F026F82420E0672068016821F0010144
:102000000160606A10B1204600F0B8FC204600F084
:1020100051FE0128E7D02068416821F490414160D9
:102020002068816821F02A0181602068016841F000
:10203000010101602046BDE8104000F003BD000032
:102040002DE9F0419EB00646142117A8FEF707F9C6
:102050005C216846FEF703F93149306888425CD15B
:1020600001200024009008946846FFF755F808B155
:10207000FEF728FA2B48016E41F480410166016E9B
:1020800001F480411C91C16C41F00101C164C06C3C
:102090004FF0020800F001001C904FF4C060CDE941
:1020A00017080320CDE9194007201B90474617A9C0
:1020B0004FF09040FEF7FEFC1C4D1B482860C5E920
:1020C00001748027C5E903476C61AC61EC61284667
:1020D0002C62FEF757FB08B1FEF7F4F97567AE62A4
:1020E000124D13484835E5E80208102091C50F4805
:1020F00045F814494830AC61EC612C62FEF742FBB4
:1021000008B1FEF7DFF93567002211462520AE62DF
:10211000FEF726FE2520FEF715FE1EB0BDE8F08175
:1021200000380140001002408004024050050020A9
:1021300044000240704770472DE9F84F0446C06FD5
:10214000984615460E46202802D0022000F04AB8D4
:1021500086B37DB30020C4F884004FF02109C4F891
:102160007C90FEF797FDA4F850508246A4F8525098
:10217000A068B0F5805F01D1206910B13546002616
:1021800000E000255FF02007B4F8520053464FF0FE
:102190000002CDF80080D0B18021204600F0DAFEA8
:1021A000D0B94DB115F8010B21688862E16F39EAA9
:1021B000010006D00120C9E736F8020BC0F3080081
:1021C000F2E7B4F85200401EA4F85200DCE74021C8
:1021D000204600F0BFFE10B1E7670320B6E7E767CF
:1021E0000020B3E718BCBDE8E08F000070B50446DE
:1021F000C06F202801D0022070BD29B322B3E16452
:10220000A4F85020A4F852200021C4F88410212002
:10221000E067206FD0B1154BC362236F1448186379
:10222000236F14485863206F134681632068256F1D
:1022300000F128022846E16CFEF706FB30B11020C1
:10224000C4F884002020E067012070BD2168402090
:1022500008622068083050E8001F41F0800140E823
:102260000012002AF5D1002070BD00000B2C0008E0
:10227000472C0008F72A000870477047FEE7000067
:1022800070B5074C074D204600F00EF808B101204C
:1022900070BD04F50064AC42F5D3002070BD0000B1
:1022A0000080000800E0030810B586B00446FEF781
:1022B000EDFB0020A4F100640090E00A02900120F0
:1022C0000390019004A96846FEF710FB0446FEF750
:1022D0007DFB06B0204610BD0148FFF7E5BF0000BA
:1022E00000E0030830B589B0040020D0114D202251
:1022F00029466846FDF79AFF2068009020798DF8FE
:102300000400A0680290E068039020690490FFF741
:10231000E3FF60B920226946284600F041F830B951
:10232000202269462846FDF7A5FF002800D001209D
:1023300009B030BD00E003082DE9F043C1B00D0045
:1023400007464FF000041AD0B5F5583F17D8781952
:10235000B0F5800F13D818E0281BFF2801D94E468E
:1023600000E086B238193246694600F06BFE30B99B
:102370003246694604EB080000F012F818B101205B
:1023800041B0BDE8F083344403E0DFF810804FF43F
:102390008079AC42E0D30020F2E700000080000822
:1023A0002DE9FC4107464FF0000015460E0004469B
:1023B00003D015B17907E8461BD00120BDE8FC81A8
:1023C0004FF0FF30CDE9000000204146FF232218E6
:1023D000AA4202D2B25C0A5400E00B54401C082806
:1023E000F5DBDDE90023381900F006F80028E5D117
:1023F0000834AC42E4D3E1E770B5044615461E4606
:10240000400701D0012070BDFEF740FB2A4633464D
:1024100021460020FEF7E4FA0446FEF7D7FA2046EC
:1024200070BD0000154808B5816C41F00101816460
:10243000816C01F001010091816C41F00201816425
:10244000806C002200F00200009011460E20FEF782
:1024500087FC0E20FEF776FC002211460F20FEF7C7
:102460007FFC0F20FEF76EFC002211464520FEF790
:1024700077FCBDE808404520FEF764BC0010024030
:1024800010B586B014216846FDF7E9FE1A48C16C04
:1024900041F00401C164C16C01F004010591C16CFB
:1024A00041F08001C164C16C01F080010591C16CF3
:1024B00041F00101C164C16C01F001010591C16CE1
:1024C00041F00201C164C06C4FF0904400F0020082
:1024D00005900122C0212046FEF7D7FBC0200090C6
:1024E00001200021CDE90101039169462046FEF754
:1024F000E1FA06B010BD0000001002400E4810B511
:102500000C49016003214160042181601021C160F8
:10251000152101614FF48071416100218161C16128
:102520000162FEF7D9FC002803D0BDE81040FDF79A
:10253000C9BF10BD001000A0340400200D4810B524
:102540000B4901604FF4E1314160002181600C22B0
:10255000C160C0E904128161C16101624162FFF79B
:102560003BFD002803D0BDE81040FDF7ABBF10BD18
:1025700000380140C8040020FEE7FEE77047F0B5D0
:102580004B6A4FF040662BB1B24203D08B6A0468AD
:102590005B1E23618D6900240B6A002D5AD063B342
:1025A00005688B68EB61CD69BDB1D1E90B3423437C
:1025B0004F6A4C6B3C4323438C8A43EA84430C6947
:1025C00023430C6A2343CC6823438C692B43234366
:1025D00025E0006849688161F0BDD1E90B352B43E6
:1025E0004E6A4D6B35432B438D8A43EA85430D6913
:1025F0002B430D6A2B438D6923E0CF69BFB1D1E92D
:102600000B342343D1F824C04C6B44EA0C0423431D
:102610008C8A43EA8443CC6823433B432B430C68B6
:102620002343046813436361B242D2D1F0BDD1E9C0
:102630000B3633434F6A4E6B3E4333438E8A43EA35
:10264000864309682B430B43016813434B610068C1
:102650008461F0BD3BB305688B68EB61CD6995B1D2
:10266000D1E90B3423434F6A4C6B3C4323438C8AA0
:1026700043EA84430C6923430C6A2343CC68234315
:102680002B438C69CCE7D1E90B352B434E6A4D6B5C
:1026900035432B438D8A43EA85430D692B430D6AED
:1026A00089692B43CFE7CD696DB1D1E90B34234361
:1026B0004F6A4C6B3C4323438C8A43EA8443CC6887
:1026C00023432B43ADE74B6A002BC2D0D1E90B5615
:1026D00035434E6B898A1E43354345EA8141114398
:1026E00002685161B3E72DE9F041984616460F465E
:1026F0000446069D08E0681C06D0FEF7CBFAA0EB66
:102700000800A8420AD84DB120688068384000D03F
:102710000120B042EFD10020BDE8F081042084F810
:102720004100606C40F0010060640120F4E70000AB
:102730002DE9F041444C05468846E06800268107B3
:1027400028680DD0E16801F00301814216D1A8B1DB
:10275000E0686968C0F30210401C88420ED120E096
:10276000012804D0022805D0032807D108E02168F9
:10277000890701E021684905002907DB01265FE0A0
:102780002168890302D421684903F5E7E1686A6892
:102790006FF00F0321F0730103EB021211430143A9
:1027A000E160206820F080602060FEF773FA074641
:1027B00005E000BFFEF76EFAC01B022837D820687C
:1027C0000001F7D4B8F1000F18D0B8F1010F1DD0F7
:1027D000287D4FF07E41400801EB4060A96840EA47
:1027E00001202169194A114008432061206840F006
:1027F00080602060FEF74EFA07461AE0A868297B41
:10280000000240EAC1602169114AECE7288A1149B7
:10281000400801EB4050A96840EA012021690E4AB6
:10282000E1E700BFFEF736FAC01B022801D90326F4
:1028300006E020680001F5D52069A96908432061F8
:102840003046BDE8F081000000100240FF80FFF933
:10285000FF80FF070000E0FFFF809FFFF8B51C4DE1
:1028600006460024A86DC00002D5FEF7DFFA0DE091
:10287000A86D40F08050A865A86D00F080500090D1
:10288000FEF7D4FAA96D21F08051A965B0F5007F5B
:1028900004D0802E07D94FF003040AE0802E08D917
:1028A000A02E01D804E001D1022402E0702E00D154
:1028B00001240848016821F00701214301600068F4
:1028C00000F00700A04201D00120F8BD0020F8BDB3
:1028D00000100240002002407047FEF7E1B90000FE
:1028E00010B596B044216846FDF7B9FC142111A833
:1028F000FDF7B5FC4FF40070FEF764FA08B172B64C
:10290000FEE7FEF79BFA184850F8901F21F01801D7
:1029100001601420009001200290002460210690A4
:10292000CDE907410221CDE90A100C9028200D9035
:102930000720CDE90E0168461091FEF7D3FE08B1DD
:1029400072B6FEE70F2011900320CDE91204149413
:10295000042111A81594FEF73DFD08B172B6FEE7FB
:10296000FEF7D2FB16B010BD00100240024801680D
:1029700041F470010160704788ED00E090F8241088
:10298000090706D501684A68436B22F400421A43DE
:102990004A6090F82410C90706D001684A68836A23
:1029A00022F400321A434A6090F82410890706D5B1
:1029B00001684A68C36A22F480321A434A6090F878
:1029C0002410490706D501684A68036B22F4802267
:1029D0001A434A6090F82410C90606D501688A682F
:1029E000836B22F480521A438A6090F8241089067F
:1029F00006D501688A68C36B22F400521A438A60C4
:102A000090F82410490611D501684A68036C22F435
:102A100080121A434A60016CB1F5801F06D101682B
:102A20004A68436C22F4C0021A434A6090F82410AA
:102A3000090606D501684A68806C22F40022024328
:102A40004A6070472DE9F84300260446C0F88460C8
:102A5000FEF720F98046206800684FF02005000747
:102A60006FF07E4712D54346002229042046009786
:102A700000F070FA50B1216851E8000F20F080009A
:102A800041E80002002AF6D1E56721E020680068ED
:102A9000400722D5434600224FF48001204600978C
:102AA00000F058FAC8B1216851E8000F20F4907086
:102AB00041E80002002AF6D12068083050E8001FE3
:102AC00021F0010140E80012002AF5D1C4F880503D
:102AD00084F878600320BDE8F883E567C4F8805087
:102AE00044F8606F666026760020F4E710B5806ACF
:102AF000FFF70DF910BD70B5846AE06FD4F880500F
:102B000021688968090604D5212802D1204600F0F1
:102B1000C5F820688068400604D5222D02D12046E1
:102B200000F096F8D4F8840040F01000C4F8840057
:102B30002046FFF7ECF870BD10B50146806A0A68C0
:102B4000126892062BD4026852E8003F23F4807387
:102B500042E80034002CF6D10268083252E8003F07
:102B600023F0010342E80034002CF5D1026808325A
:102B700052E8003F23F0400342E80034002CF5D136
:102B80002022C0F88020026E012A08D1036853E891
:102B9000002F22F0100243E80024002CF6D100227E
:102BA0004266026E012A02D0FFF7C4FA10BD09681E
:102BB0004968B0F8582089B28A4201D9A0F85A1061
:102BC000B0F85A10511A89B2FFF776F810BD10B557
:102BD0000246806A01214166016E012902D0FFF799
:102BE000AAFA10BDB0F858104B08A0F85A30126875
:102BF000526892B2914201D3A0F85A20B0F85A20FC
:102C0000891A89B2FFF758F810BD10B50146806ADD
:102C100009680968890613D40168083151E8002F52
:102C200022F0800241E80023002BF5D1026852E82F
:102C3000001F41F0400142E80013002BF6D110BD07
:102C4000FFF71AFB10BD10B5806AFFF716FB10BD29
:102C5000016851E8002F22F4907241E80023002B14
:102C6000F6D10168083151E8002F22F0010241E855
:102C70000023002BF5D1016E012908D1026852E82A
:102C8000001F21F0100142E80013002BF6D1202193
:102C9000C0F880100021016681667047026852E822
:102CA000001F21F0C00142E80013002BF6D12021C3
:102CB000C16770472DE9F0410446016880682269C8
:102CC000E3691043626900251A431043714F0A6893
:102CD000714B1A4002430A6020684168E26821F49F
:102CE0004051114341602168A069B94201D0226A74
:102CF00010438A6822F4306202438A60674923687D
:102D000067488B420DD1D0F8880010F0030006D040
:102D1000012847D0022843D0032830D144E00121C4
:102D20002EE060498B420BD1D0F8880010F00C00E7
:102D300034D0042836D0082832D00C281FD133E0F4
:102D400059498B420BD1D0F8880010F0300025D0C3
:102D5000102827D0202823D0302810D124E0BB42CF
:102D60000DD1D0F8880010F4406017D0B0F5806F16
:102D700018D0B0F5006F13D0B0F5406F14D010210B
:102D80004A4A00264FF40040BB422FD171B10229BC
:102D90000FD004290FD0082973D10FE00021EFE7ED
:102DA0000221EDE70421EBE70821E9E7FEF724FC27
:102DB00003E0104602E0FEF743FCE8B3626802EB72
:102DC000420181425DD8B0EB023F5AD8010E0302A6
:102DD0005008181871410023FDF7F4F9344AA0F5A2
:102DE000407191424DD82168C8604BE0E3694FF6CD
:102DF000EF77834228D1092943D2DFE801F00508A3
:102E00000B420D4242421000FEF7F6FB06E0FEF7D1
:102E100005FC03E0104602E0FEF712FC60B1410041
:102E2000606801EB5001B1FBF0F0A0F11001B94274
:102E300027D84FF6F07100E024E00140C0F34200D3
:102E400001432068C1601DE009291AD2DFE801F0C2
:102E500005080B190D1919191000FEF7CDFB06E036
:102E6000FEF7DCFB03E0104602E0FEF7E9FB48B1A9
:102E7000616800EB5100B0FBF1F0A0F11001B94224
:102E800005D90125A6662846E666BDE8F08180B230
:102E9000A9E7000000800040F369FFEF003801401F
:102EA0000010024000440040004800400024F400AC
:102EB000FFFC0F0070B54165A0F8582000210446C2
:102EC000C0F884102220C4F88000606FD0B11E4B7F
:102ED000C362636F1D481863636F1D485863606F5A
:102EE00013468163656D21682A462431606FFDF7C2
:102EF000ABFC38B11020C4F884002020C4F8800056
:102F0000012070BD206940B1216851E8000F40F4F4
:102F1000807041E80002002AF6D12068083050E8AD
:102F2000001F41F0010140E80012002AF5D120689D
:102F3000083050E8001F41F0400140E80012002A2C
:102F4000F5D1002070BD0000392B0008CF2B000800
:102F5000F72A00082DE9F047994617460D46044622
:102F60004FF00008089E33E0701C31D0FDF792FE50
:102F7000A0EB0900B04218D8BEB12068016849072B
:102F800026D5802D24D0402D22D0C169C943090700
:102F90000DD4082505622046FFF75AFEC4F8845078
:102FA00084F878800120BDE8F0870320FBE7C06942
:102FB000C04300050CD421684FF40060086220462D
:102FC000FFF746FE2020C4F8840084F87880ECE700
:102FD0002068C06935EA000004D00020B842C3D0A0
:102FE0000020E0E70120F9E70148FEF791BE00006C
:102FF000C8040020FEE7000010B586B01421684622
:10300000FDF72DF90E48C16C41F00101C164C06C9F
:103010004FF0904400F001000590C0200090012086
:10302000019000200290039069462046FDF742FD82
:103030000122C0212046FDF728FE06B010BD000089
:103040000010024070B58EB00E4605461446382179
:103050006846FDF704F94FF4807006900320009055
:103060004FF480600790C0000390C0020A9409905A
:103070000020059040F6B83401952246694606487E
:10308000FDF7E4FE10B101200EB070BD22463146BE
:103090000148FDF7D7FFF7E7340400200FB4054BD4
:1030A00010B503A9044A029800F028F810BC5DF896
:1030B00014FB000065350008300000200907090EE8
:1030C000002804DB00F1E02080F80014704700F0D5
:1030D0000F0000F1E02080F8141D704702E008C8DE
:1030E000121F08C1002AFAD170477047002001E082
:1030F00001C1121F002AFBD1704700002DE9FF4FCC
:103100008DB00F460546002606E025280BD0DDE9E8
:103110000F1290476D1C761C28780028F5D111B04D
:10312000304600F0F3B90024A246A1460122EC4942
:1031300000E0044315F8013F203B02FA03F0084287
:10314000F7D128782A2810D06FF02F022878A0F124
:103150003001092914D80AEB8A0102EB410144F03D
:10316000020400EB010A6D1CF0E701CF5FEA000AE0
:1031700003D544F40054CAF1000A44F002046D1C63
:1031800028782E2817D115F8010F44F004042A28B6
:103190000ED06FF02F022878A0F1300109290AD84B
:1031A00009EB890102EB410100EB01096D1CF2E71B
:1031B00057F8049B6D1C28786C280FD006DC4C282F
:1031C00017D068280DD06A2814D104E0742810D0D4
:1031D0007A280FD10DE044F400140AE044F480147E
:1031E00001E044F440146978814202D104F580146E
:1031F0006D1C6D1C2A786E2A1FD00CDC632A31D01E
:1032000004DC002A8BD0582A11D1A3E0642A68D0AC
:10321000692A0CD165E0732A2ED004DC6F2A73D0A2
:10322000702A04D19BE0752A6FD0782A6ED01046A0
:10323000DDE90F129047761C50E1C4F302500228DA
:1032400006D0032809D0042801CF09D0066045E143
:1032500001CFF117C0E9006140E101CF06803DE1F7
:1032600006703BE117F8040B8DF8000000208DF884
:103270000100EB46012003E057F804BB4FF0FF309C
:1032800061074FF0000102D40DE008F1010188460A
:1032900049450FDA8045F8DB1BF808100029F4D106
:1032A00008E008F1010188468142FADB1BF80810AA
:1032B0000029F6D1DDE90F23AAEB0800814621465B
:1032C00000F039F9304400EB080604E0DDE90F12A4
:1032D0001BF8010B9047B8F10108F7D22146484688
:1032E000F7E00A21C4F302534FF0000B0891022BC0
:1032F00004D001CFC117032B09D00AE0FF1D27F02E
:103300000707F7E8020108E032E01FE020E000B222
:10331000C117042B01D140B2C117031E71F1000384
:1033200007DA4FF0000CD0EB0C006CEB01012D2301
:1033300002E0230504D52B238DF82430012303E07C
:10334000E30701D02023F7E7984658E00A2110E070
:1033500010210EE010204FF0000B08900CE010211F
:103360004FF0000B44F004044FF00809089103E00B
:1033700008214FF0000B0891C4F30253022B04D034
:1033800001CF0021032B06D006E0FF1D27F0070721
:10339000F7E8020103E080B2042B00D1C0B24FF085
:1033A000000823072BD5702A07D0DDF820C08CF049
:1033B000100C5CEA0B0C05D00EE040238DF8243095
:1033C000012308E050EA010306D030238DF82430B1
:1033D0008DF8252002239846DDF820C08CF0080CDB
:1033E0005CEA0B0C0BD150EA010301D1630706D54F
:1033F00030238DF824304FF00108A9F10109582A33
:1034000004D038A20B9208AA0A920BE03AA2F9E77C
:103410005B46089AFCF7D6FE0B9B9B5C0A9A521EF1
:103420000A92137050EA0102F2D10A98ADEB000043
:1034300000F1200B600702D524F4803401E04FF046
:103440000109D94502DDA9EB0B0000E0002000EBEB
:103450000B0141440890AAEB010AE00306D4DDE920
:103460000F232146504600F066F806444FF000094D
:1034700008E009A911F80900DDE90F12904709F1E8
:103480000109761CC145F4DBE0030CD5DDE90F230F
:103490002146504600F04FF8064404E0DDE90F12E3
:1034A00030209047761C0899481E08900029F5DCCA
:1034B00008E00A980A990078491C0A91DDE90F1280
:1034C0009047761CBBF10001ABF1010BF1DC21460A
:1034D0005046DDE90F2300F01CF806446D1C1BE686
:1034E00009280100303132333435363738396162DA
:1034F000636465660000000030313233343536379E
:1035000038394142434445460000000030BCBDE824
:10351000C08F2DE9F041044600251E461746880459
:1035200004D405E039462020B0476D1C641EF9D54F
:103530002846BDE8F0812DE9F041044600251E46ED
:103540009046C80301D5302700E02027880404D521
:1035500005E041463846B0476D1C641EF9D5284643
:10356000BDE8F08113B54FF0FF33012269460248F0
:10357000FEF7E2FD00981CBDC8040020FDF798FB93
:10358000FFF7AEF9FEF77CFFFEF74CFFFEF7B6FF44
:10359000FEF7D4FF4FF4806205490648FEF766FB4C
:1035A00005A0FFF77BFDFFF727FDFCF73DFFFEE7DA
:1035B00034000020C8040020546869732069732017
:1035C000426F6F746C6F616465725F70726F6A6571
:1035D00063740D0A0000000070B54FF0FF32002345
:1035E000094D0CE0C45C62400024D60702D085EA95
:1035F000520200E05208641C082CF6D35B1C8B427C
:10360000F0D3D04370BD00002083B8ED000000006F
:10361000000000000102030406070809A08601005B
:10362000400D0300801A060000350C0040420F00D8
:1036300080841E0000093D0000127A000024F4007E
:1036400000366E010048E801006CDC02000000005A
:10365000010203047436000800000020340000005A
:10366000DC300008A836000834000020AC09000057
:10367000EC30000801000000100000000000000015
:10368000000000000000000000000000000000003A
:103690000100000000000000000000000000000029
:0836A00000093D0000000000DC
:040000050800018D61
:00000001FF
